:0300000002136286
:0C136200787FE4F6D8FD75817E0213A9A7
:041DB2000208000023
:101B3B008C438D44EF25E02444F582E43400F58397
:101B4B00C083C082E04543FFA3E04544D082D083ED
:061B5B00CFF0A3EFF02221
:101AE6008C438D44EF25E02444F582E43400F583ED
:101AF600C083C082E544F4FFE543F4FEE05EFEA346
:0D1B0600E05FFFD082D083EEF0A3EFF0226D
:10000E00EF7006ED24FF929022BF0105ED24FF92C2
:02001E0094222A
:10002600EF7006ED24FF92C222BF0105ED24FF9278
:02003600C122E5
:10105E00E4F524E52475F003A42400F582E43400BD
:10106E00F583E524F075F003A42401F582E4340041
:10107E00F583E4F0E52475F003A42402F582E4344C
:10108E0000F583E4F0E52475F003A42400F9740060
:10109E0035F0FA7B01121DE30524E524C3940640C6
:1010AE00B2E4F524E52475F005A4244EF582E4346B
:1010BE0000F583E524F075F005A4244FF582E434A1
:1010CE0000F5837407F0E52475F005A42452F5822B
:1010DE00E43400F5837401F0E52475F005A4245181
:1010EE00F582E43400F583E4F0E52475F005A424DC
:1010FE004EF9740035F0FA7B01121DEB0524E52440
:10110E00C39402409FE4F524AF241219660524E52A
:10111E0024C3940240F243910143911043C1024310
:10112E00C104E4FDFF12000E0F12000E1F12002666
:10113E000F120026121DBD121CF57E007F3C7D0095
:0C114E007B017A007912120308D2AF2254
:101875008F428C438D447E007F077D007B017A007B
:10188500792A12030890002A7455F0A37401F0E533
:1018950043A3F0E544A3F090002BE0FE90002AE07E
:1018A5002EFE90002CE02E254490002EF0A3740D02
:1018B500F0A3740AF07B017A00792A754900754A0C
:0A18C50007AF4212122DE4FEFF22CD
:10163100AB0774352BF582E43400F583E060247444
:10164100352BF582E43400F583E4F0FD1200267DAC
:10165100807C00121AE674392BF582E43400F5839C
:10166100E4802674352BF582E43400F5837401F0AF
:10167100AF03FD1200267D807C00121B3B74392BC9
:10168100F582E43400F5837401F0743F2BF582E4B4
:071691003400F583E4F022B0
:1013EE008F4274332FF582E43400F583E060357458
:1013FE00332FF582E43400F583E4F0EF75F005A4A5
:10140E00244EF9740035F0FA7B01121B137D007C1B
:10141E0001AF42121AE6743D2542F582E43400F51E
:10142E0083E4803974332542F582E43400F5837405
:10143E0001F0E54275F005A4244EF9740035F0FA7A
:10144E007B017D011216987D007C01AF42121B3B81
:10145E00743D2542F582E43400F5837401F0744244
:0C146E002542F582E43400F583E4F0220E
:1019A700AE0774312EF582E43400F583E0601574D8
:1019B700312EF582E43400F583E4F0FD12000E7C4D
:1019C70002021AE674312EF582E43400F5837401BD
:0E19D700F0AF06FD12000E1D7C02121B3B221B
:0B1D2E007B017A0079007D01021D148A
:0B1D39007B017A0079037D01021D147C
:0B1D44007B017A0079067D01021D146E
:0B1D4F007B017A0079097D01021D1460
:0B1D5A007B017A00790C7D01021D1452
:0B1D65007B017A00790F7D01021D1444
:0B1D70007B017A0079007D02021D1447
:0B1D7B007B017A0079037D02021D1439
:0B1D86007B017A0079067D02021D142B
:0B1D91007B017A0079097D02021D141D
:0B1D9C007B017A00790C7D02021D140F
:0B1DA7007B017A00790F7D02021D1401
:101C0500EF700B121D2E7D017C00E4FF8009121D73
:0B1C15004F7D017C007F01121B3B2271
:101C2000EF700B121D707D027C00E4FF8009121D15
:0B1C3000917D027C007F01121B3B2213
:101BCB00D3EF9400EE940040147D787C00ED1D70F3
:0D1BDB00011CED4C70F7EF1F70E61E80E35B
:011BE80022DA
:101A1B0074372FF582E43400F5837401F0EF701105
:101A2B00121D2E121D39121D447D047C00E4FF8013
:101A3B000F121D4F121D5A121D657D047C007F0174
:041A4B00121B3B220D
:101C3B00EF700B121D397D087C00E4FF8009121D2B
:0B1C4B005A7D087C007F01121B3B2229
:101C5600EF700B121D7B7D107C00E4FF8009121DC6
:0B1C66009C7D107C007F01121B3B22C4
:101C7100EF700B121D447D207C00E4FF8009121DD2
:0B1C8100657D207C007F01121B3B22D0
:101C8C00EF700B121D867D407C00E4FF8009121D55
:0B1C9C00A77D407C007F01121B3B2253
:0300200002163194
:030038000213EEC2
:031E05000219A718
:1003C200E4F524E52425E02422F582E43400F583D3
:1003D200E0FEA3E08EF01202DB04070001043A0003
:1003E20002046E000404A2000804D60010050A00EC
:1003F20020053E00400572008005A6010005DC02D2
:100402000000000612E52425E02426F582E43400EB
:10041200F583E0FEA3E064014E70030206B8E52412
:1004220025E02426F582E43400F583E4F0A304F009
:10043200AF24121C050206B8E52425E02426F58225
:10044200E43400F583E0FEA3E064024E700302068A
:10045200B8E52425E02426F582E43400F583E4F0AF
:10046200A37402F0AF24121C200206B8E52425E092
:100472002426F582E43400F583E0FEA3E064044E12
:1004820070030206B8E52425E02426F582E4340050
:10049200F583E4F0A37404F0AF24121A1B0206B829
:1004A200E52425E02426F582E43400F583E0FEA36A
:1004B200E064084E70030206B8E52425E02426F520
:1004C20082E43400F583E4F0A37408F0AF24121C34
:1004D2003B0206B8E52425E02426F582E43400F543
:1004E20083E0FEA3E064104E70030206B8E5242503
:1004F200E02426F582E43400F583E4F0A37410F0DE
:10050200AF24121C560206B8E52425E02426F58203
:10051200E43400F583E0FEA3E064204E700302069B
:10052200B8E52425E02426F582E43400F583E4F0DE
:10053200A37420F0AF24121C710206B8E52425E052
:100542002426F582E43400F583E0FEA3E064404E05
:1005520070030206B8E52425E02426F582E434007F
:10056200F583E4F0A37440F0AF24121C8C0206B8A9
:10057200E52425E02426F582E43400F583E0FEA399
:10058200E064804E70030206B8E52425E02426F5D7
:1005920082E43400F583E4F0A37480F0AF24120007
:1005A200200206B8E52425E02426F582E43400F58D
:1005B20083E0FEA3E07003EE640170030206B8E577
:1005C2002425E02426F582E43400F5837401F0A3A7
:1005D200E4F0AF241200380206B8E52425E0242610
:1005E200F582E43400F583E0FEA3E07003EE6402DA
:1005F20070030206B8E52425E02426F582E43400DF
:10060200F5837402F0A3E4F0AF24121E050206B8CB
:10061200E52425E02426F582E43400F583E0FEA3F8
:10062200E04E70030206B8E52425E02426F582E4B4
:100632003400F583E4F0A3F07D01FCAF24121AE646
:100642000DAF24121AE67D04AF24121AE67D08AF1C
:1006520024121AE67D10AF24121AE67D20AF24126E
:100662001AE67D40AF24121AE674372524F582E497
:100672003400F583E4F0E5247B01701B7A007900F5
:10068200FD121D147B017A007903E4FD121D147B17
:10069200017A007906801A7A007909E4FD121D14A4
:1006A2007B017A00790CE4FD121D147B017A00793A
:1006B2000FE4FD121D140524E524C3940250030225
:0306C20003C5224B
:10096B0075CF101203C2E4F524E52475F003A4241B
:10097B0000F9740035F0FA7B011219250524E524E2
:10098B00C3940640E4E4F524E52475F005A4244E55
:10099B00F9740035F0FA7B011206C50524E524C372
:1009AB00940240E47B007A00790C121AB6EC4D4E9F
:1009BB004F602B7B007A00790C7F327E007D007CB0
:1009CB0000121BE9900044E0FCA3E0FDE4FF1218C9
:1009DB0075900046E0FCA3E0FD7F01121875E4F56D
:1009EB0024743F2524F582E43400F583E0C394108E
:1009FB007480948E404474352524F582E43400F5DC
:100A0B0083E0603674352524F582E43400F583E405
:100A1B00F0743F2524F582E43400F583E4F0743957
:100A2B002524F582E43400F583E4F0FDAF241200B5
:100A3B00267D807C00AF24121AE674422524F582B1
:100A4B00E43400F583E0C3940874809487405174B8
:100A5B00332524F582E43400F583E06043743325B9
:100A6B0024F582E43400F583E4F074422524F58206
:100A7B00E43400F583E4F0743D2524F582E434007E
:100A8B00F583E4F0E52475F005A4244EF9740035E4
:100A9B00F0FA7B01121B137D007C01AF24121AE6C6
:100AAB000524E524C3940250030209EC900041E0B5
:100ABB00C39440748094B8400890003CE0700204EA
:020ACB00F02217
:03000B00020ACD19
:100ACD00C0E0C0F0C083C082C0D075D000C000C0EF
:0D0ADD0001C002C003C004C005C006C00770
:100AEA00758A88758CFA121CC2E50A60190527E511
:100AFA002770020526B4E80EE526B4030975250118
:100B0A00752600752700E50B60080529E52970029E
:100B1A000528754B00E54B75F005A4244EF97400C1
:100B2A0035F0FA7B01120C01054BE54BC3940240E8
:100B3A00E40509E509AE087002050814D394E8EE45
:100B4A0094035003020BE6750800750900754B0003
:100B5A007439254BF582E43400F583E06026743F4E
:100B6A00254BF582E43400F583E0FF04F0D3EF94DB
:100B7A00107480948E400D7439254BF582E434004C
:100B8A00F583E4F0743D254BF582E43400F583E007
:100B9A0060267442254BF582E43400F583E0FF04B5
:100BAA00F0D3EF940874809487400D743D254BF57B
:100BBA0082E43400F583E4F0054BE54B640270905F
:100BCA0090003BE06016900041E0FF04F0D3EF9400
:0C0BDA0040748094B8400590003BE4F0AB
:100BE600D007D006D005D004D003D002D001D00063
:0B0BF600D0D0D082D083D0F0D0E0320D
:03002300020D2F9C
:100D2F00C0E0C0F0C083C082C0D075D000C000C08A
:100D3F0001C002C003C004C005C006C00730993609
:100D4F00C299E52C24FFFFE52B34FFFEEFB52E18DB
:100D5F00EEB52D147E007F0C7D007B007A00792A82
:100D6F00120308D282020E2E052EE52E7002052DDB
:100D7F00242FF8E6F599209803020E2EC2989000C2
:100D8F0019E0FF04F074122FF582E43400F583E5C7
:100D9F0099F0900012E064556002804A900019E0CB
:100DAF00C39407407A900013E0640160028037908B
:100DBF000017E0B40D06A3E0640A600280289000DB
:100DCF0013E0FF900012E02FFFE433FE900014E0D9
:100DDF007C002FFFEC3EFEA3E02FFFEC3EFEA3E0D6
:100DEF006F7001EE60187E007F087D007B017A0036
:100DFF007912120308900022E4F0A3F080219000F2
:100E0F0014E0FEA3E0FDEDFF900022EEF0A3EFF063
:100E1F007E007F087D007B017A007912120308D0D3
:100E2F0007D006D005D004D003D002D001D000D017
:0A0E3F00D0D082D083D0F0D0E03292
:03003B00020E4969
:100E4900C0E0C0F0C083C082C0D075D000C000C06F
:0D0E590001C002C003C004C005C006C007F0
:100E6600754F00E59D30E137539DFDE53824FFFFC2
:100E7600E53734FFFEEFB53A18EEB539147E007F3C
:100E86000C7D007B007A007936120308D293020F9C
:100E960045053AE53A70020539243BF8E6F59FE543
:100EA6009D20E003020F45539DFE900021E0FF04C4
:100EB600F0741A2FF582E43400F583E59FF0900074
:100EC6001AE0645560187E007F087D007B017A0079
:100ED600791A120308900024E4F0A3F080619000D0
:100EE60021E0C39407405890001BE0640160028033
:100EF6003F90001FE0B40D06A3E0640A6002803054
:100F060090001BE0FF90001AE02FFF90001CE02FDE
:100F1600FFA3E02FF54FA3E0654F6002801290001B
:100F26001CE0FEA3E0FDEDFF900024EEF0A3EFF041
:0F0F36007E007F087D007B017A00791A12030884
:100F4500D007D006D005D004D003D002D001D00000
:0B0F5500D0D0D082D083D0F0D0E032AA
:0800030012105E12096B80FB74
:101CF500758911758A88758CFAC28CD2A9D28C2205
:061DB600046D00000000B6
:0A1DBD00E4F570F56FF56EF56D2288
:101CC200AF70AE6FAD6EAC6DEF2401F570E43EF512
:0A1CD2006FE43DF56EE43CF56D2271
:091DD100AF70AE6FAD6EAC6D2277
:101BE9008F458E448D438C42121DD112027DAF4523
:0C1BF900AE44AD43AC42900004020297E1
:061DFB00121DD102027D61
:101AB6008B428A43894490000412024D1202BBC332
:101AC600E5709BFBE56F9AFAE56E99F9E56D98F876
:101AD600C312023CE440047F018001FFFEFDFC22AC
:081DE300120134FF1217BD22AA
:041E010012115A223E
:101B6100120134FED3940640037F002290000274D8
:101B7100011201C390000174011201C3AF067D017E
:041B8100121E01220D
:101B8500120134FED3940640037F002290000274B4
:101B9500021201C390000174011201C3AF067D0258
:041BA500121E0122E9
:101BA900120134FED3940640037F0022900002E420
:101BB9001201C3900001E41201C3AF06E4FD121E35
:021BC9000122F7
:101925008B428A438944EA494B6035AB42AA43A9B5
:101935004490000212014D7003021BA9AB42AA4359
:10194500A94490000212014DB40103021B61AB4290
:10195500AA43A94490000212014DB40203121B854B
:01196500225F
:0D1D1400EA494B6007900002ED1201C32266
:0F1D0500EA494B7002FF2290000112014DFF22AC
:1017BD00EF700D43C140C2C643C180C2C77F012235
:1017CD00BF010C439A80C287439A40C286803ABFBC
:1017DD00020C439A20C287439A10C286802BBF0306
:1017ED000C439A02C28743A180C286801CBF040CA1
:1017FD0043A140C28743A120C286800DBF050A4385
:0C180D00A110C28743A108C2867F002200
:10115A00EF701EED7004C2C6800FBD0107C2C6D271
:10116A00C77F0122BD0207D2C6C2C77F01227F0004
:10117A0022EF6401701EED7004C287800FBD010763
:10118A00C287D2867F0122BD0207D287C2867F012B
:10119A00227F0022EF6402701EED7004C285800F68
:1011AA00BD0107C285D2847F0122BD0207D285C252
:1011BA00847F01227F0022EF6403701EED7004C257
:1011CA0081800FBD0107C281D2A77F0122BD02071C
:1011DA00D281C2A77F01227F0022EF6404701EED34
:1011EA007004C2A6800FBD0107C2A6D2A57F012244
:1011FA00BD0207D2A6C2A57F01227F0022EF6405A5
:10120A00701EED7004C2A4800FBD0107C2A4D2A350
:10121A007F0122BD0207D2A4C2A37F01227F00223E
:03122A007F002220
:081DEB00120134FF121A8322D9
:1006C5008B428A438944EA494B700302096AAB426B
:1006D500AA43A94490000212014D6071120134250C
:1006E500E02494F582E43400F583E0FEA3E0FFE422
:1006F500FCFD7B607AEAF9F8C3120226504FAB4243
:10070500AA43A944120134FF25E02494F582E43478
:1007150000F583E4F0A3F0EF25E02490F582E434BE
:1007250000F583E4F0A3F09000040412017AD39459
:1007350002401AAB42AA43A944120134249AF58215
:10074500E43400F583E4F09000041201C3AB42AA3F
:1007550043A94490000412014D14700302081114BA
:1007650070030208BA24026003020963120134FF10
:1007750025E0248CF582E43400F583E4F0A304F04D
:10078500EF25E02490F582E43400F583E0FEA3E054
:10079500D394F4EE9401500302096A120134FF2543
:1007A500E02490F582E43400F583E4F0A3F0749A34
:1007B5002FF582E43400F583E0FF04F0EFC39402E3
:1007C500400E120134249AF582E43400F583E4F0F6
:1007D500120134FF249AF582E43400F583E07004B5
:1007E5007E0180027E00EF25E02488F582E4340056
:1007F500F583EEF0749A2FF582E43400F583E0B4C6
:1008050001057F010209527F00020952120134FFDE
:1008150025E0248CF582E43400F583E4F0A304F0AC
:10082500EF25E02490F582E43400F583E0FEA3E0B3
:10083500D394E8EE9403500302096A120134FF24AD
:100845009AF582E43400F583E070047E0180027E2F
:1008550000749A2FF582E43400F583EEF0749A2F34
:10086500F582E43400F583E060047F0180027F00B7
:10087500120134FE25E02488F582E43400F583EF87
:10088500F0EE25E02488F582E43400F583E0700479
:100895007F0180027F00EE25E02489F582E43400A3
:1008A500F583EFF0EE25E02490F582E43400F5833E
:1008B500E4F0A3F022120134FF25E0248CF582E454
:1008C5003400F583E4F0A304F0EF25E02490F582ED
:1008D500E43400F583E0FEA3E0D394E8EE940350FE
:1008E5000302096A120134FF25E02490F582E434FD
:1008F50000F583E4F0A3F0749A2FF582E43400F553
:1009050083E070047F0180027F00120134FE249A87
:10091500F582E43400F583EFF0749A2EF582E43421
:1009250000F583E060047F0180027F00EE25E0246E
:1009350088F582E43400F583EFF0749A2EF582E4AD
:100945003400F583E060047F0180027F00120134EA
:1009550025E02489F582E43400F583EFF022900048
:0609650004E41201C322AC
:100C01008B4C8A4D894EEA494B7003020D2EAB4C39
:100C1100AA4DA94E90000312014D7003020D2E1230
:100C21000134FF2498F582E43400F583E004F09068
:100C3100000112014DFE74982FF582E43400F58312
:100C4100E0C39E5056120134FF25E02488F582E46A
:100C51003400F583E060057B01E4800CAB4CAA4DC8
:100C6100A94E120134FFE4FBFD121819AB4CAA4D39
:100C7100A94E120134FF25E02489F582E43400F500
:100C810083E060047B01800CAB4CAA4DA94E12019C
:100C910034FFE4FB7D011218198046AB4CAA4DA923
:100CA1004E120134FFE4FBFD121819AB4CAA4DA9F9
:100CB1004E120134FFE4FB7D01121819AB4CAA4D11
:100CC100A94E120134FF2498F582E43400F583E043
:100CD100D3940D400C74982FF582E43400F583E42D
:100CE100F0AB4CAA4DA94E120134FF25E0248CF53E
:100CF10082E43400F583E0FCA3E04C6013EF25E0CF
:100D01002490F582E43400F583E475F0011201E5E5
:100D110090000212014D601512013425E02494F572
:0E0D210082E43400F583E475F0011201E5224E
:0D1D2100EA494B6007900001ED1201C3225A
:101CA700EA494B6015900004ED1201C31201342478
:0B1CB7009AF582E43400F583E4F0228B
:1016980090000374011201C3900002ED1201C3907F
:1016A8000004E41201C3120134FF25E02494F582FA
:1016B800E43400F583E4F0A3F0EF25E02490F5820C
:1016C800E43400F583E4F0A3F0EF25E0248CF58200
:1016D800E43400F583E4F0A3F074982FF582E43441
:1016E80000F583E4F0749A2FF582E43400F583E47E
:0216F800F022DE
:101B13008B438A448945900003E41201C3120134C4
:101B2300FFE4FB7D01121819AB43AA44A945120136
:081B330034FFE4FBFD02181968
:081DF30090000312014DFF22D4
:101A8300EF700D439120C295439140C2967F01228E
:101A9300BF010D439180C29743A101C2A07F0122E0
:101AA300BF020D43A102C2A143A104C2A27F01222E
:031AB3007F00228F
:10181900EF701AED700BEB6004D295800DC29580C4
:1018290009EB6004D2968002C2967F0122EF64011F
:10183900701AED700BEB6004D297800DC297800986
:10184900EB6004D2A08002C2A07F0122EF701AEDE2
:10185900700BEB6004D2A1800DC2A18009EB60047A
:0C186900D2A28002C2A27F01227F0022D6
:091DDA008E7D8F7E7E007F0122C8
:101A4F00EF4E7011ED4C70028006ED64014C70206A
:101A5F0043C108801BEF64014E7013ED4C70028080
:101A6F0006ED64014C7005439A04800480028000E7
:041A7F00E4FEFF2260
:1018CF00EF4E7022ED4C700CEB4A6004D2C3804295
:1018DF00C2C3803EED64014C7038EB4A6004D2C441
:1018EF008030C2C4802CEF64014E7024ED4C700C1C
:1018FF00EB4A6004D282801AC2828016ED64014CDA
:10190F00700CEB4A6004D2838008C283800480028B
:06191F008000E4FEFF223F
:1019E500EF4E7012ED4C7004A2C38020ED64014CE3
:1019F5007020A2C48016EF64014E7016ED4C700481
:101A0500A2828008ED64014C7006A283FE33FF229A
:061A15008000E4FEFF2248
:031CDC00E4FFFE24
:101CDF00EF1FAA0670011E4A600BE4FDEDD39400BE
:051CEF0040EE1D80F72E
:011CF40022CD
:0A1DC7001201FBFFAEF0121DDA223C
:1015C9008B718A7289731201FBFFAEF07B017A007D
:1015D900E4FDFC1218CF121CDCAB71AA72A97312BC
:1015E90001FBFFAEF07B017A007D017C001218CF70
:1015F900121CDCAB71AA72A9731201FBFFAEF0E4F5
:10160900FBFAFDFC1218CFE4FFFE121CDFAB71AA36
:1016190072A9731201FBFFAEF0E4FBFA7D01FC1223
:0816290018CFE4FFFE021CDFF4
:080F60008B628A6389648D65D0
:100F6800E4F566E565AB62AA63A96430E70D120192
:100F7800FBFFAEF07B017A00E480091201FBFFAEB3
:100F8800F0E4FBFAFDFC1218CFE56525E0F565E411
:100F9800FFFE121CDFAB62AA63A9641201FBFFAE5D
:100FA800F07B017A007D017C001218CFE4FFFE126D
:100FB8001CDFAB62AA63A9641201FBFFAEF0E4FB7D
:100FC800FA7D01FC1218CFE4FFFE121CDF0566E56E
:100FD80066C39408408DAB62AA63A9641201FBFF43
:100FE800AEF0E4FDFC121A4FAB62AA63A9641201C9
:100FF800FBFFAEF07B017A007D017C001218CFE484
:10100800FFFE121CDFAB62AA63A9641201FBFFAEEC
:10101800F0E4FDFC1219E5EF4E6005E4F567800386
:10102800756701AB62AA63A9641201FBFFAEF0E425
:10103800FBFA7D01FC1218CFE4FFFE121CDFAB6245
:10104800AA63A9641201FBFFAEF07D017C00121AAD
:051058004FAF677E00B0
:01105D002270
:06175C00AB50AA51A95296
:101762008B748A7589761201FBFFAEF0E4FBFA7D79
:1017720001FC1218CFE4FFFE121CDFAB74AA75A99C
:10178200761201FBFFAEF07B017A007D017C001234
:1017920018CFE4FFFE121CDFAB74AA75A976120102
:1017A200FBFFAEF07B017A00E4FDFC1218CFE4FFF0
:0B17B200FE121CDF7FE87E03021CDF3C
:1014EE008B778A7889791201FBFFAEF07B017A0047
:1014FE00E4FDFC1218CFE4FFFE121CDFAB77AA78D6
:10150E00A9791201FBFFAEF07B017A007D017C0010
:10151E001218CFE4FFFE121CDFAB77AA78A979125E
:10152E0001FBFFAEF0E4FBFA7D01FC1218CFE4FFE5
:10153E00FE121CDFAB77AA78A9791201FBFFAEF081
:0E154E00E4FBFAFDFC1218CFE4FFFE021CDFE6
:10155C008B7A8A7B897C1201FBFFAEF0E4FBFA7D6F
:10156C0001FC1218CFE4FFFE121CDFAB7AAA7BA998
:10157C007C1201FBFFAEF0E4FBFAFDFC1218CFE489
:10158C00FFFE121CDFAB7AAA7BA97C1201FBFFAE1B
:10159C00F07B017A007D017C001218CFE4FFFE1273
:1015AC001CDFAB7AAA7BA97C1201FBFFAEF0E4FB3B
:0D15BC00FA7D01FC1218CFE4FFFE021CDFD7
:0612C8008B688A69896A47
:1012CE00E4F56B1201FBFFAEF0E4FDFC121A4FE4E5
:1012DE00FFFE121CDFE4F56CAB68AA69A96A120165
:1012EE00FBFFAEF07B017A007D017C001218CFE48B
:1012FE00FFFE121CDFAB68AA69A96A1201FBFFAEE2
:10130E00F0E4FDFC1219E5EF4E600FAF6C7480A88F
:10131E0007088002C313D8FC426BAB68AA69A96A9E
:10132E001201FBFFAEF0E4FBFA7D01FC1218CFE4D4
:10133E00FFFE121CDF056CE56CC39408409AAB6887
:10134E00AA69A96A1201FBFFAEF07D017C00121A98
:03135E004FAF6B23
:011361002269
:1016FA008B508A5189528D53E5581558AE5770024E
:10170A0015574E6048AB50AA51A9521215C9AB5091
:10171A00AA51A952AD53120F60EF4E700712175C0F
:10172A00E4FEFF22AB50AA51A9521212C8AB5405CB
:10173A0056E556AA557002055514F9EF1201B1ABD8
:10174A0050AA51A9521214EE12175C80AB7E007F88
:02175A0001226A
:10147A008B598A5A895B8D5CE5611561AE60700291
:10148A0015604E605AAB59AA5AA95B1215C9AB59D5
:10149A00AA5AA95BAD5C120F60EF4E7002801FABB7
:1014AA005D055FE55FAA5E7002055E14F9120134FC
:1014BA00FDAB59AA5AA95B120F60EF4E700DAB59DA
:1014CA00AA5AA95B121762E4FEFF22AB59AA5AA9CB
:1014DA005B1214EEAB59AA5AA95B12176280997E65
:0414EA00007F01225C
:10196600EF701E439A04439850438E0243892043E6
:101976008780758D06758B82C28EC2ABD2ACFEFF98
:1019860022BF0118439108D293758FC0759D50757B
:101996009E8275950675A901E4FEFF227EFF7FFFF4
:0119A600221E
:10122D008F458B468A478948E545704BE52A600313
:10123D000212C7D3E54A9407E5499400507C7E001D
:10124D007F0C7D007B007A00792A120308AE49AF2E
:10125D004A782F7C007D00AB46AA47A94812010EA3
:10126D0085492B854A2C752A01C299AB46AA47A9F7
:10127D0048120134F59922E5456401703DE536705B
:10128D0039D3E54A9407E5499400502E7E007F0C32
:10129D007D007B007A007936120308AE49AF4A789B
:1012AD003B7C007D00AB46AA47A94812010E85493B
:0B12BD0037854A38753601853B9F22BB
:10136E00020003E493A3F8E493A34003F68001F292
:10137E0008DFF48029E493A3F85407240CC8C33380
:10138E00C4540F4420C8834004F456800146F6DF4F
:10139E00E4800B0102040810204080901DB2E47E10
:1013AE00019360BCA3FF543F30E509541FFEE49344
:1013BE00A360010ECF54C025E060A840B8E493A30B
:1013CE00FAE493A3F8E493A3C8C582C8CAC583CA36
:1013DE00F0A3C8C582C8CAC583CADFE9DEE780BEEE
:011DBC000026
:10003E00E709F608DFFA8046E709F208DFFA803EA4
:10004E0088828C83E709F0A3DFFA8032E309F60891
:10005E00DFFA8078E309F208DFFA807088828C83F9
:10006E00E309F0A3DFFA806489828A83E0A3F608AD
:10007E00DFFA805889828A83E0A3F208DFFA804C87
:10008E0080D280FA80C680D4806980F2803380105E
:10009E0080A680EA809A80A880DA80E280CA8033C7
:1000AE0089828A83ECFAE493A3C8C582C8CCC5833F
:1000BE00CCF0A3C8C582C8CCC583CCDFE9DEE7800F
:1000CE000D89828A83E493A3F608DFF9ECFAA9F08E
:1000DE00EDFB2289828A83ECFAE0A3C8C582C8CCE4
:1000EE00C583CCF0A3C8C582C8CCC583CCDFEADEFD
:1000FE00E880DB89828A83E493A3F208DFF980CC5F
:10010E0088F0EF60010E4E60C388F0ED2402B40457
:10011E000050B9F582EB2402B4040050AF232345FE
:06012E00822390008E7395
:10013400BB010689828A83E0225002E722BBFE02C9
:09014400E32289828A83E49322FC
:10014D00BB010CE58229F582E5833AF583E0225067
:10015D0006E92582F8E622BBFE06E92582F8E222B1
:0D016D00E58229F582E5833AF583E49322CB
:10017A00BB0111F8E58229F582E5833AF583E0C8E7
:10018A0028F0E8225009C58229F8C58226C622BB72
:10019A00FE0DC58229F8E2C5822582F2E58222EAAD
:0701AA002583F583E9932290
:1001B100BB010689828A83F0225002F722BBFE012D
:0201C100F32227
:1001C300F8BB010DE58229F582E5833AF583E8F072
:1001D300225006E92582C8F622BBFE05E92582C81E
:0201E300F22206
:1001E500C5F0F8A3E028F0C5F0F8E58215827002A5
:0601F5001583E038F02242
:1001FB00BB010A89828A83E0F5F0A3E022500687CF
:10020B00F009E71922BBFE07E3F5F009E319228990
:0B021B00828A83E493F5F074019322C3
:10022600EB9FF5F0EA9E42F0E99D42F0EC6480C84F
:0602360064809845F022EF
:10023C00EB9FF5F0EA9E42F0E99D42F0E89C45F018
:01024C00228F
:10024D00BB010DE58229F582E5833AF58302034072
:10025D005007E92582F8020334BBFE07E92582F831
:10026D0002034CE58229F582E5833AF583020358B2
:10027D00BB010789828A830203AA5005E9F80203AC
:0A028D009EBBFE05E9F80203B6224D
:10029700BB010DE58229F582E5833AF5830203AABE
:1002A7005007E92582F802039EBBFE07E92582F87D
:0402B7000203B62266
:1002BB00BB010789828A830203755005E9F80203A3
:1002CB0068BBFE05E9F802038189828A8302038EEB
:1002DB00D083D082F8E4937012740193700DA3A3B2
:1002EB0093F8740193F5828883E473740293B5F0E9
:0D02FB00067403936860E9A3A3A3A380D851
:10030800EF4E6012EF60010EEDBB010B89828A830C
:10031800F0A3DFFCDEFA2289F05007F709DFFCA919
:0C032800F022BBFEFCF309DFFCA9F02270
:0C033400E6FC08E6FD08E6FE08E6FF22F5
:0C034000E0FCA3E0FDA3E0FEA3E0FF2230
:0C034C00E2FC08E2FD08E2FE08E2FF22ED
:10035800E493FC740193FD740293FE740393FF22EB
:0D036800E6FB08E6F908E6FA08E6CBF82205
:0C037500E0F8A3E0F9A3E0FAA3E0FB220B
:0D038100E2FB08E2F908E2FA08E2CBF822FC
:10038E00E493F8740193F9740293FA740393FB22C5
:0C039E00ECF608EDF608EEF608EFF6228B
:0C03AA00ECF0A3EDF0A3EEF0A3EFF022C6
:0C03B600ECF208EDF208EEF208EFF22283
:00000001FF
